{
  "contractName": "Election",
  "abi": [
    {
      "constant": true,
      "inputs": [],
      "name": "name",
      "outputs": [
        {
          "name": "",
          "type": "string"
        }
      ],
      "payable": false,
      "stateMutability": "view",
      "type": "function"
    },
    {
      "constant": true,
      "inputs": [
        {
          "name": "",
          "type": "uint256"
        }
      ],
      "name": "candidates",
      "outputs": [
        {
          "name": "name",
          "type": "string"
        },
        {
          "name": "votes",
          "type": "uint256"
        }
      ],
      "payable": false,
      "stateMutability": "view",
      "type": "function"
    },
    {
      "constant": true,
      "inputs": [],
      "name": "owner",
      "outputs": [
        {
          "name": "",
          "type": "address"
        }
      ],
      "payable": false,
      "stateMutability": "view",
      "type": "function"
    },
    {
      "constant": true,
      "inputs": [
        {
          "name": "",
          "type": "address"
        }
      ],
      "name": "voters",
      "outputs": [
        {
          "name": "authorized",
          "type": "bool"
        },
        {
          "name": "voted",
          "type": "bool"
        },
        {
          "name": "voteIndex",
          "type": "uint256"
        }
      ],
      "payable": false,
      "stateMutability": "view",
      "type": "function"
    },
    {
      "constant": true,
      "inputs": [],
      "name": "electionEnd",
      "outputs": [
        {
          "name": "",
          "type": "uint256"
        }
      ],
      "payable": false,
      "stateMutability": "view",
      "type": "function"
    },
    {
      "inputs": [
        {
          "name": "_name",
          "type": "string"
        },
        {
          "name": "durationMinutes",
          "type": "uint256"
        },
        {
          "name": "candidate1",
          "type": "string"
        },
        {
          "name": "candidate2",
          "type": "string"
        }
      ],
      "payable": false,
      "stateMutability": "nonpayable",
      "type": "constructor"
    },
    {
      "anonymous": false,
      "inputs": [
        {
          "indexed": false,
          "name": "name",
          "type": "string"
        },
        {
          "indexed": false,
          "name": "votes",
          "type": "uint256"
        }
      ],
      "name": "TallyVotes",
      "type": "event"
    },
    {
      "constant": false,
      "inputs": [
        {
          "name": "voter",
          "type": "address"
        }
      ],
      "name": "authorize",
      "outputs": [],
      "payable": false,
      "stateMutability": "nonpayable",
      "type": "function"
    },
    {
      "constant": false,
      "inputs": [
        {
          "name": "candidateIndex",
          "type": "uint256"
        }
      ],
      "name": "vote",
      "outputs": [],
      "payable": false,
      "stateMutability": "nonpayable",
      "type": "function"
    },
    {
      "constant": false,
      "inputs": [],
      "name": "end",
      "outputs": [],
      "payable": false,
      "stateMutability": "nonpayable",
      "type": "function"
    }
  ],
  "bytecode": "0x606060405234156200001057600080fd5b60405162000c7138038062000c718339810160405280805182019190602001805190602001909190805182019190602001805182019190505083600290805190602001906200006192919062000192565b50336000806101000a81548173ffffffffffffffffffffffffffffffffffffffff021916908373ffffffffffffffffffffffffffffffffffffffff16021790555060018342010160048190555060038054806001018281620000c4919062000219565b9160005260206000209060020201600060408051908101604052808681526020016000815250909190915060008201518160000190805190602001906200010d9291906200024e565b50602082015181600101555050506003805480600101828162000131919062000219565b9160005260206000209060020201600060408051908101604052808581526020016000815250909190915060008201518160000190805190602001906200017a9291906200024e565b50602082015181600101555050505050505062000385565b828054600181600116156101000203166002900490600052602060002090601f016020900481019282601f10620001d557805160ff191683800117855562000206565b8280016001018555821562000206579182015b8281111562000205578251825591602001919060010190620001e8565b5b509050620002159190620002d5565b5090565b8154818355818115116200024957600202816002028360005260206000209182019101620002489190620002fd565b5b505050565b828054600181600116156101000203166002900490600052602060002090601f016020900481019282601f106200029157805160ff1916838001178555620002c2565b82800160010185558215620002c2579182015b82811115620002c1578251825591602001919060010190620002a4565b5b509050620002d19190620002d5565b5090565b620002fa91905b80821115620002f6576000816000905550600101620002dc565b5090565b90565b6200033691905b8082111562000332576000808201600062000320919062000339565b60018201600090555060020162000304565b5090565b90565b50805460018160011615610100020316600290046000825580601f1062000361575062000382565b601f016020900490600052602060002090810190620003819190620002d5565b5b50565b6108dc80620003956000396000f30060606040526004361061008e576000357c0100000000000000000000000000000000000000000000000000000000900463ffffffff1680630121b93f1461009357806306fdde03146100b65780633477ee2e146101445780638da5cb5b14610204578063a3ec138d14610259578063b6a5d7de146102bc578063ce7ea161146102f5578063efbe1c1c1461031e575b600080fd5b341561009e57600080fd5b6100b46004808035906020019091905050610333565b005b34156100c157600080fd5b6100c96104ce565b6040518080602001828103825283818151815260200191508051906020019080838360005b838110156101095780820151818401526020810190506100ee565b50505050905090810190601f1680156101365780820380516001836020036101000a031916815260200191505b509250505060405180910390f35b341561014f57600080fd5b610165600480803590602001909190505061056c565b60405180806020018381526020018281038252848181546001816001161561010002031660029004815260200191508054600181600116156101000203166002900480156101f45780601f106101c9576101008083540402835291602001916101f4565b820191906000526020600020905b8154815290600101906020018083116101d757829003601f168201915b5050935050505060405180910390f35b341561020f57600080fd5b61021761059e565b604051808273ffffffffffffffffffffffffffffffffffffffff1673ffffffffffffffffffffffffffffffffffffffff16815260200191505060405180910390f35b341561026457600080fd5b610290600480803573ffffffffffffffffffffffffffffffffffffffff169060200190919050506105c3565b604051808415151515815260200183151515158152602001828152602001935050505060405180910390f35b34156102c757600080fd5b6102f3600480803573ffffffffffffffffffffffffffffffffffffffff16906020019091905050610607565b005b341561030057600080fd5b61030861071b565b6040518082815260200191505060405180910390f35b341561032957600080fd5b610331610721565b005b600160003373ffffffffffffffffffffffffffffffffffffffff1673ffffffffffffffffffffffffffffffffffffffff16815260200190815260200160002060000160019054906101000a900460ff1615151561038f57600080fd5b600160003373ffffffffffffffffffffffffffffffffffffffff1673ffffffffffffffffffffffffffffffffffffffff16815260200190815260200160002060000160009054906101000a900460ff1615156103ea57600080fd5b600454421015156103fa57600080fd5b60038181548110151561040957fe5b90600052602060002090600202016001016000815480929190600101919050555060018060003373ffffffffffffffffffffffffffffffffffffffff1673ffffffffffffffffffffffffffffffffffffffff16815260200190815260200160002060000160016101000a81548160ff02191690831515021790555080600160003373ffffffffffffffffffffffffffffffffffffffff1673ffffffffffffffffffffffffffffffffffffffff1681526020019081526020016000206001018190555050565b60028054600181600116156101000203166002900480601f0160208091040260200160405190810160405280929190818152602001828054600181600116156101000203166002900480156105645780601f1061053957610100808354040283529160200191610564565b820191906000526020600020905b81548152906001019060200180831161054757829003601f168201915b505050505081565b60038181548110151561057b57fe5b906000526020600020906002020160009150905080600001908060010154905082565b6000809054906101000a900473ffffffffffffffffffffffffffffffffffffffff1681565b60016020528060005260406000206000915090508060000160009054906101000a900460ff16908060000160019054906101000a900460ff16908060010154905083565b6000809054906101000a900473ffffffffffffffffffffffffffffffffffffffff1673ffffffffffffffffffffffffffffffffffffffff163373ffffffffffffffffffffffffffffffffffffffff1614151561066257600080fd5b600160008273ffffffffffffffffffffffffffffffffffffffff1673ffffffffffffffffffffffffffffffffffffffff16815260200190815260200160002060000160019054906101000a900460ff161515156106be57600080fd5b60018060008373ffffffffffffffffffffffffffffffffffffffff1673ffffffffffffffffffffffffffffffffffffffff16815260200190815260200160002060000160006101000a81548160ff02191690831515021790555050565b60045481565b60008060009054906101000a900473ffffffffffffffffffffffffffffffffffffffff1673ffffffffffffffffffffffffffffffffffffffff163373ffffffffffffffffffffffffffffffffffffffff1614151561077e57600080fd5b6004544211151561078e57600080fd5b600090505b6003805490508110156108ad577f71c5441bb1a2bd7cf8552883f631381d3f05b3795374b2377ced7aa44a6450e76003828154811015156107d057fe5b90600052602060002090600202016000016003838154811015156107f057fe5b90600052602060002090600202016001015460405180806020018381526020018281038252848181546001816001161561010002031660029004815260200191508054600181600116156101000203166002900480156108915780601f1061086657610100808354040283529160200191610891565b820191906000526020600020905b81548152906001019060200180831161087457829003601f168201915b5050935050505060405180910390a18080600101915050610793565b505600a165627a7a72305820686466d7080fed853708588c86b36408a87db2fea9ca82a4277f87a3f70fdad10029",
  "source": "pragma solidity ^0.4.17;\n\ncontract Election {\n\n  struct Candidate {\n    string name;\n    uint votes;\n  }\n\n  struct Voter {\n    bool authorized;\n    bool voted;\n    uint voteIndex;\n  }\n\n  address public owner;\n  mapping (address => Voter) public voters;\n  string public name;\n  Candidate[] public candidates;\n  uint public electionEnd;\n\n  event TallyVotes(string name, uint votes);\n\n  function Election(string _name, uint durationMinutes, string candidate1, string candidate2) {\n    name = _name;\n    owner = msg.sender;\n    electionEnd = now + durationMinutes + 1;\n    candidates.push(Candidate(candidate1, 0));\n    candidates.push(Candidate(candidate2, 0));\n  }\n\n  function authorize(address voter) {\n    require(msg.sender == owner);\n    require(!voters[voter].voted);\n    voters[voter].authorized = true;\n  }\n\n  function vote(uint candidateIndex) {\n    require(!voters[msg.sender].voted);\n    require(voters[msg.sender].authorized);\n    require(now < electionEnd);\n    candidates[candidateIndex].votes++;\n    voters[msg.sender].voted = true;\n    voters[msg.sender].voteIndex = candidateIndex;\n  }\n  function end() {\n    require(msg.sender == owner);\n    require(now > electionEnd);\n\n    for (uint i = 0; i < candidates.length; i++) {\n      TallyVotes(candidates[i].name, candidates[i].votes);\n    }\n  }\n}\n",
  "sourcePath": "/Users/Jon/Documents/projects/blockchainElection/contracts/Election.sol",
  "compiler": {
    "name": "solc",
    "version": "0.4.19+commit.c4cbbb05.Emscripten.clang"
  },
  "schemaVersion": "2.0.0",
  "updatedAt": "2018-03-21T23:16:21.920Z"
}